{
  "_format": "hh-sol-artifact-1",
  "contractName": "Voting",
  "sourceName": "contracts/Voting.sol",
  "abi": [
    {
      "inputs": [
        {
          "internalType": "string[]",
          "name": "candidateNames",
          "type": "string[]"
        }
      ],
      "stateMutability": "nonpayable",
      "type": "constructor"
    },
    {
      "inputs": [],
      "name": "admin",
      "outputs": [
        {
          "internalType": "address",
          "name": "",
          "type": "address"
        }
      ],
      "stateMutability": "view",
      "type": "function"
    },
    {
      "inputs": [
        {
          "internalType": "uint256",
          "name": "",
          "type": "uint256"
        }
      ],
      "name": "candidates",
      "outputs": [
        {
          "internalType": "string",
          "name": "name",
          "type": "string"
        },
        {
          "internalType": "uint256",
          "name": "voteCount",
          "type": "uint256"
        }
      ],
      "stateMutability": "view",
      "type": "function"
    },
    {
      "inputs": [],
      "name": "getCandidatesCount",
      "outputs": [
        {
          "internalType": "uint256",
          "name": "",
          "type": "uint256"
        }
      ],
      "stateMutability": "view",
      "type": "function"
    },
    {
      "inputs": [
        {
          "internalType": "address",
          "name": "",
          "type": "address"
        }
      ],
      "name": "hasVoted",
      "outputs": [
        {
          "internalType": "bool",
          "name": "",
          "type": "bool"
        }
      ],
      "stateMutability": "view",
      "type": "function"
    },
    {
      "inputs": [
        {
          "internalType": "address",
          "name": "",
          "type": "address"
        }
      ],
      "name": "isVoter",
      "outputs": [
        {
          "internalType": "bool",
          "name": "",
          "type": "bool"
        }
      ],
      "stateMutability": "view",
      "type": "function"
    },
    {
      "inputs": [
        {
          "internalType": "address",
          "name": "voter",
          "type": "address"
        }
      ],
      "name": "registerVoter",
      "outputs": [],
      "stateMutability": "nonpayable",
      "type": "function"
    },
    {
      "inputs": [
        {
          "internalType": "uint256",
          "name": "candidateIndex",
          "type": "uint256"
        }
      ],
      "name": "vote",
      "outputs": [],
      "stateMutability": "nonpayable",
      "type": "function"
    }
  ],
  "bytecode": "0x608060405234801561001057600080fd5b506040516111a03803806111a08339818101604052810190610032919061036a565b336000806101000a81548173ffffffffffffffffffffffffffffffffffffffff021916908373ffffffffffffffffffffffffffffffffffffffff16021790555060005b8151811015610108576001604051806040016040528084848151811061009e5761009d6103b3565b5b602002602001015181526020016000815250908060018154018082558091505060019003906000526020600020906002020160009091909190915060008201518160000190816100ee9190610603565b506020820151816001015550508080600101915050610075565b50506106d5565b6000604051905090565b600080fd5b600080fd5b600080fd5b6000601f19601f8301169050919050565b7f4e487b7100000000000000000000000000000000000000000000000000000000600052604160045260246000fd5b61017182610128565b810181811067ffffffffffffffff821117156101905761018f610139565b5b80604052505050565b60006101a361010f565b90506101af8282610168565b919050565b600067ffffffffffffffff8211156101cf576101ce610139565b5b602082029050602081019050919050565b600080fd5b600080fd5b600067ffffffffffffffff82111561020557610204610139565b5b61020e82610128565b9050602081019050919050565b60005b8381101561023957808201518184015260208101905061021e565b60008484015250505050565b6000610258610253846101ea565b610199565b905082815260208101848484011115610274576102736101e5565b5b61027f84828561021b565b509392505050565b600082601f83011261029c5761029b610123565b5b81516102ac848260208601610245565b91505092915050565b60006102c86102c3846101b4565b610199565b905080838252602082019050602084028301858111156102eb576102ea6101e0565b5b835b8181101561033257805167ffffffffffffffff8111156103105761030f610123565b5b80860161031d8982610287565b855260208501945050506020810190506102ed565b5050509392505050565b600082601f83011261035157610350610123565b5b81516103618482602086016102b5565b91505092915050565b6000602082840312156103805761037f610119565b5b600082015167ffffffffffffffff81111561039e5761039d61011e565b5b6103aa8482850161033c565b91505092915050565b7f4e487b7100000000000000000000000000000000000000000000000000000000600052603260045260246000fd5b600081519050919050565b7f4e487b7100000000000000000000000000000000000000000000000000000000600052602260045260246000fd5b6000600282049050600182168061043457607f821691505b602082108103610447576104466103ed565b5b50919050565b60008190508160005260206000209050919050565b60006020601f8301049050919050565b600082821b905092915050565b6000600883026104af7fffffffffffffffffffffffffffffffffffffffffffffffffffffffffffffffff82610472565b6104b98683610472565b95508019841693508086168417925050509392505050565b6000819050919050565b6000819050919050565b60006105006104fb6104f6846104d1565b6104db565b6104d1565b9050919050565b6000819050919050565b61051a836104e5565b61052e61052682610507565b84845461047f565b825550505050565b600090565b610543610536565b61054e818484610511565b505050565b5b818110156105725761056760008261053b565b600181019050610554565b5050565b601f8211156105b7576105888161044d565b61059184610462565b810160208510156105a0578190505b6105b46105ac85610462565b830182610553565b50505b505050565b600082821c905092915050565b60006105da600019846008026105bc565b1980831691505092915050565b60006105f383836105c9565b9150826002028217905092915050565b61060c826103e2565b67ffffffffffffffff81111561062557610624610139565b5b61062f825461041c565b61063a828285610576565b600060209050601f83116001811461066d576000841561065b578287015190505b61066585826105e7565b8655506106cd565b601f19841661067b8661044d565b60005b828110156106a35784890151825560018201915060208501945060208101905061067e565b868310156106c057848901516106bc601f8916826105c9565b8355505b6001600288020188555050505b505050505050565b610abc806106e46000396000f3fe608060405234801561001057600080fd5b506004361061007d5760003560e01c806338db6dd31161005b57806338db6dd3146100ff578063a7771ee31461011b578063bb9aa28f1461014b578063f851a440146101695761007d565b80630121b93f1461008257806309eef43e1461009e5780633477ee2e146100ce575b600080fd5b61009c600480360381019061009791906105ce565b610187565b005b6100b860048036038101906100b39190610659565b61037d565b6040516100c591906106a1565b60405180910390f35b6100e860048036038101906100e391906105ce565b61039d565b6040516100f692919061075b565b60405180910390f35b61011960048036038101906101149190610659565b610459565b005b61013560048036038101906101309190610659565b610542565b60405161014291906106a1565b60405180910390f35b610153610562565b604051610160919061078b565b60405180910390f35b61017161056f565b60405161017e91906107b5565b60405180910390f35b600260003373ffffffffffffffffffffffffffffffffffffffff1673ffffffffffffffffffffffffffffffffffffffff16815260200190815260200160002060009054906101000a900460ff16610213576040517f08c379a000000000000000000000000000000000000000000000000000000000815260040161020a9061081c565b60405180910390fd5b600360003373ffffffffffffffffffffffffffffffffffffffff1673ffffffffffffffffffffffffffffffffffffffff16815260200190815260200160002060009054906101000a900460ff16156102a0576040517f08c379a000000000000000000000000000000000000000000000000000000000815260040161029790610888565b60405180910390fd5b60018054905081106102e7576040517f08c379a00000000000000000000000000000000000000000000000000000000081526004016102de906108f4565b60405180910390fd5b6001600360003373ffffffffffffffffffffffffffffffffffffffff1673ffffffffffffffffffffffffffffffffffffffff16815260200190815260200160002060006101000a81548160ff0219169083151502179055506001818154811061035357610352610914565b5b9060005260206000209060020201600101600081548092919061037590610972565b919050555050565b60036020528060005260406000206000915054906101000a900460ff1681565b600181815481106103ad57600080fd5b90600052602060002090600202016000915090508060000180546103d0906109e9565b80601f01602080910402602001604051908101604052809291908181526020018280546103fc906109e9565b80156104495780601f1061041e57610100808354040283529160200191610449565b820191906000526020600020905b81548152906001019060200180831161042c57829003601f168201915b5050505050908060010154905082565b60008054906101000a900473ffffffffffffffffffffffffffffffffffffffff1673ffffffffffffffffffffffffffffffffffffffff163373ffffffffffffffffffffffffffffffffffffffff16146104e7576040517f08c379a00000000000000000000000000000000000000000000000000000000081526004016104de90610a66565b60405180910390fd5b6001600260008373ffffffffffffffffffffffffffffffffffffffff1673ffffffffffffffffffffffffffffffffffffffff16815260200190815260200160002060006101000a81548160ff02191690831515021790555050565b60026020528060005260406000206000915054906101000a900460ff1681565b6000600180549050905090565b60008054906101000a900473ffffffffffffffffffffffffffffffffffffffff1681565b600080fd5b6000819050919050565b6105ab81610598565b81146105b657600080fd5b50565b6000813590506105c8816105a2565b92915050565b6000602082840312156105e4576105e3610593565b5b60006105f2848285016105b9565b91505092915050565b600073ffffffffffffffffffffffffffffffffffffffff82169050919050565b6000610626826105fb565b9050919050565b6106368161061b565b811461064157600080fd5b50565b6000813590506106538161062d565b92915050565b60006020828403121561066f5761066e610593565b5b600061067d84828501610644565b91505092915050565b60008115159050919050565b61069b81610686565b82525050565b60006020820190506106b66000830184610692565b92915050565b600081519050919050565b600082825260208201905092915050565b60005b838110156106f65780820151818401526020810190506106db565b60008484015250505050565b6000601f19601f8301169050919050565b600061071e826106bc565b61072881856106c7565b93506107388185602086016106d8565b61074181610702565b840191505092915050565b61075581610598565b82525050565b600060408201905081810360008301526107758185610713565b9050610784602083018461074c565b9392505050565b60006020820190506107a0600083018461074c565b92915050565b6107af8161061b565b82525050565b60006020820190506107ca60008301846107a6565b92915050565b7f4e6f742072656769737465726564000000000000000000000000000000000000600082015250565b6000610806600e836106c7565b9150610811826107d0565b602082019050919050565b60006020820190508181036000830152610835816107f9565b9050919050565b7f416c726561647920766f74656400000000000000000000000000000000000000600082015250565b6000610872600d836106c7565b915061087d8261083c565b602082019050919050565b600060208201905081810360008301526108a181610865565b9050919050565b7f496e76616c69642063616e646964617465000000000000000000000000000000600082015250565b60006108de6011836106c7565b91506108e9826108a8565b602082019050919050565b6000602082019050818103600083015261090d816108d1565b9050919050565b7f4e487b7100000000000000000000000000000000000000000000000000000000600052603260045260246000fd5b7f4e487b7100000000000000000000000000000000000000000000000000000000600052601160045260246000fd5b600061097d82610598565b91507fffffffffffffffffffffffffffffffffffffffffffffffffffffffffffffffff82036109af576109ae610943565b5b600182019050919050565b7f4e487b7100000000000000000000000000000000000000000000000000000000600052602260045260246000fd5b60006002820490506001821680610a0157607f821691505b602082108103610a1457610a136109ba565b5b50919050565b7f4e6f742061646d696e0000000000000000000000000000000000000000000000600082015250565b6000610a506009836106c7565b9150610a5b82610a1a565b602082019050919050565b60006020820190508181036000830152610a7f81610a43565b905091905056fea26469706673582212208133988a523b1d81c2d6a47da15f13ea7f050b60d36dd5cde0469504b1b54cf164736f6c634300081c0033",
  "linkReferences": {},
  "deployedLinkReferences": {}
}